:0600000002006902084243
:03000B0002086385
:030013000208449C
:03001B0002086573
:0300230002097A55
:03002B0002086761
:0300330002086957
:03003B0002097B3C
:03004300020100B7
:03004B0002084365
:03005300020100A7
:03005B0002084553
:030063000208464A
:0600C20075090002006652
:0300660002043C55
:2001C100E508600790E6A07401F0227508012290E6B8E0FFE4BF400104FE602290E6B9E009
:2001E100FDBDA81A75080090E680E043E008F090000A12095490E680E053E0F7F022EE60AB
:200201001890E6B9E0FDBDB01090E6BAE0F50975080090E6A07480F022E4BFC00104FD70C0
:2002210006EE700302034290E6B9E0FCBCA2028008BCA9028003020342EF235401F50AE4A1
:20024100BCA90104F50B600679517A00800479507A00890C90E6BAE0F50DA3E0F50E90E61F
:20026100BEE0F50FA3E0F510750800E50F45107003020341AB0FAC10C3EB9440EC9400500C
:200281000280047B407C00E50A604990E6A0E020E1F97523407524E77525008B26752700D9
:2002A100850D21850E22850B28850C82120451E582700990E6A07401F002034190E6B57463
:2002C10001F090E68AE4F090E68BEBF090E6A07480F0804A90E6B57401F090E68AE4F090C4
:2002E100E68BF090E6A07480F090E6A0E020E1F9752D40752EE7752F008B30753100850DAF
:200301002B850E2C850B328509337534A6850C821204D1E582700790E6A07401F0227C002F
:20032100A90FAA10E9C39BF9EA9CFA890F8A10A80DAA0EEB28FBEC3AFC8B0D8C0E02026C19
:2003410022ED7006EE700302043590E6B9E0FEBEA3028003020435EF235401F51190E6BAB0
:20036100E0FDA3E0FE90E6BEE0FBA3E0FC750800EB4C70030204348B018C02C3E99440EAAB
:2003810094005002800479407A00E511604290E6A0E020E1F98D468E47894875490090E789
:2003A10040C006C005C004C003C001120633D001D003D004D005D00690E6B57401F090E6B5
:2003C1008AE4F090E68BE9F090E6A07480F0804190E6B57401F090E68AE4F090E68BF09044
:2003E100E6A07480F090E6A0E020E1F98D828E837546407547E78B488C49C006C005C004ED
:20040100C003C001120633D001D003D004D005D0067A008B008C07E8C399F8EF9AFF880302
:200421008F048D008E07E928F9EA3FFA89058A060203712290E6A07401F02290E60074128A
:10044100F075820012099BE50860FC1201D080F76B
:2010E90012010002FFFFFF40B40413860000010200010904000000FFFFFF0009020000012A
:2011090001008032FB100000041121113B11E91000000111110213117768697465717561CB
:20112900726B407768697465717561726B2E6F726700465832207365726965732043797007
:16114900726573732D636C61737320626F6F746C6F616465720045
:20045100C007C006C005AF82E528600AAE228E29AE218E2A8004AE218E29EF2FFFF58212D3
:200471000697E582604DE528FD3395E0FE74012DF513E43EF51490002975F0401206CBE50F
:20049100826030EF3395E0FE4307018F82120697E582601F852615852716852382852483DB
:2004B1008525F0120742E5827004F582800B75820180061206AF758200D005D006D0072279
:2004D100C007C006C005C004C003C002C001C000AF82E4F535F536EF2FFFF582120697E55D
:2004F10082700302060DAC338CF005F07B017C008006EB2BFBEC33FCD5F0F7C3E535953089
:20051100E5369531400302060DE532600AAA2C8A37AA2B8A388004AA2B8A37E532FA3395EF
:20053100E0FE74012AF513E43EF51490003775F0401206CBE582700302060DC0078B058CD9
:20055100068D468E47852B82852C83C006C005C004C003C001C00012086BAA82AF83D00030
:20057100D001D003D004D005D006EDC39AF539EE9FF53AE530C39535FEE5319536FFC3EEE2
:200591009539EF953AD007500DE530C39535F539E5319536F53AE535252DFAE536352EFDC9
:2005B100AE2F853913853A148A828D838EF01206CBE58260471206AFE5827004F582805134
:2005D1007E00E5346006C3EE9534500C8F82120697E58270030E80EAEEB5340575820080D2
:2005F10030E539252BF52BE53A352CF52CE5392535F535E53A3536F53602050C1206AFE575
:2006110030B53508E531B53603D38001C3E433F582D000D001D002D003D004D005D006D069
:0206310007229E
:20063300AA82AB83AC46AD47AE48AF49EE60010FEF601775AF078A9B8B9A8C9E8D9D90E676
:0B0653007CE090E67BF0DEF6DFF42296
:20065E00C007AF8290E678E020E00CE51260F5751200758200801F90E678E030E205758265
:20067E00008013EF600D90E678E0FFA2E1E433F5828003758201D00722C007AF8290E67835
:20069E007480F090E679EFF075820112065ED0072290E678E030E2047582002290E67874C4
:2006BE0040F090E678E020E6F975820122C007C006C005C004C003C002C001C000AD82AE0C
:2006DE0083AFF0E5134514700575820180457B007C00EBB51306ECB514028027EB2DF8EC4D
:2006FE003EF98F02888289838AF012097FF890E679F075820112065EE58260070BBB00D23F
:20071E000C80CFEBB51307ECB51403D38001C3E433F582D000D001D002D003D004D005D08A
:20073E0006D00722C007C006C005C004C003C002C001C00085821785831885F019E5154575
:20075E001670067582010208317401B5150614B516028002800690E6787420F090E679E04D
:20077E007B007C0079007A00E9B51507EAB5160302080E75820012065EE582700302082175
:20079E00740229F8E43AFFE8B5150AEFB5160690E6787420F0740129FEE43AFFEEB5152CFC
:2007BE00EFB5162875AF03759AE6759B7890E67B7440F0E0AFE0E92517F8EA3518FDAE1979
:2007DE0088828D838EF0EF1208478018E92517FDEA3518FEAF1990E679E0F88D828E838FE6
:2007FE00F012084709B900010A89038A0402078690E678E030E205758200801790E678E0D3
:20081E0020E6F9EBB51507ECB51603D38001C3E433F582D000D001D002D003D004D005D0E1
:04083E0006D00722B7
:06009800E478FFF6D8FD3C
:010842003283
:010843003282
:010844003281
:200076007900E94400601B7A00901163780075923EE493F2A308B800020592D9F4DAF2759B
:0200960092FFD7
:010845003280
:01084600327F
:03010000020A44AC
:0301040002097C71
:030108000208BC2E
:03010C000209786D
:0301100002097E63
:0301140002105F77
:030118000208B921
:03011C000201B825
:030120000208C30F
:0301240002105D69
:030128000208C406
:03012C0002105E60
:0301300002108A30
:030134000208625C
:0301380002086456
:03013C000208684E
:030140000208C0F2
:030144000201B8FD
:030148000210574B
:03014C0002105846
:0301500002105941
:0301540002105A3C
:0301580002105B37
:03015C0002105C32
:0301600002097D14
:030164000201B8DD
:030168000201B8D9
:03016C000201B8D5
:030170000208C2C0
:030174000208C5B9
:030178000208C7B3
:03017C000208C9AD
:030180000208C6AC
:030184000208C8A6
:030188000208CAA0
:03018C00020979EC
:0301900002086AF8
:030194000208BAA4
:030198000208BD9D
:03019C000208BF97
:0301A0000208B89A
:0301A4000208BB93
:0301A8000208BE8C
:0301AC000208C185
:0301B000020866DC
:0301B40002107DB9
:0101B8003214
:1B08470020F71130F6138883A88220F509F6A8837583002280FEF280F5F022B0
:010862003263
:010863003262
:010864003261
:010865003260
:01086600325F
:01086700325E
:01086800325D
:01086900325C
:01086A00325B
:20086B00E546454760467A01E54625E0F546E547334012F547E5829546E583954740030A6A
:20088B0080E6C3E54713F547E54613F546C3E5829546F5F0E58395474005F58385F082C38B
:0D08AB00E54713F547E54613F546DAE1226F
:0108B800320D
:20009E007800E84400600A790075923EE4F309D8FC7800E84400600C7900903E00E4F0A3F4
:0400BE00D8FCD9FA97
:0108B900320C
:0108BA00320B
:0108BB00320A
:0108BC003209
:0108BD003208
:0108BE003207
:0108BF003206
:0108C0003205
:0108C1003204
:0108C2003203
:0108C3003202
:0108C4003201
:0108C5003200
:0108C60032FF
:0108C70032FE
:0108C80032FD
:0108C90032FC
:0108CA0032FB
:2008CB00E583700BE58224FA400122B4001122E5826003D5E0FD0075E0FED583F674F9D5FC
:2008EB00E0FD22C007C006C001C000AE82AF83EE2EF8EF33F9EE28FEEF39FF90E600E0F8C6
:20090B00794C20E416C3EF13CE13CEFF795AE820E309C3EF13CE13CEFF7963E58124FAF8E8
:20092B00E926C313C313F9C3EE99F582EF9400F583D000D001D006D0075001220208CB7432
:20094B0011C0E01208EE158122C007C006AE82AF837411C0E0EE4F600D1EBEFF011F9003CF
:0D096B00E81208EE80EF1581D006D00722BB
:01097800324C
:01097900324B
:01097A00324A
:01097B003249
:01097C003248
:01097D003247
:01097E003246
:0D006900758151121079E582600302006676
:1C097F0020F71430F6148883A88220F507E6A88375830022E280F7E49322E02287
:20099B00AF82753C00753D00D2E890E668E043E008F090E65CE043E001F090E65D7401F017
:2009BB00D2AF90E680E020E10890E680E043E002F0EF600E90E680E043E008F090000A12D7
:2009DB00095490E680E053E0F7F022AF82BF00028037BF01028036BF02028039BF040280AB
:2009FB0038BF06028037BF08028036BF80028019BF8102801CBF8202801BBF8402801ABF73
:200A1B0086028019BF881E801890E6A02290E6A12290E6A22290E6A32290E6A42290E6A560
:200A3B002290E6A62290000022C020C0E0C0F0C082C083C007C006C005C004C003C002C079
:200A5B0001C000C0D075D000C08675860090E6B8E0FFE4BF800104FE601990E6B9E0FDBD2F
:200A7B00061190E6BAE0FCA3E0F5828C1B12107E020CB5EF702790E6B9E0FDBD091F90E647
:200A9B00BAE0F5821210CBE582600990E6A07480F0020CB590E6A07401F0020CB5EE600E16
:200ABB0090E6B9E0FDBD08061210AF020CB58F05BD012E90E6B9E0FDBD0B2690E6BCE0FD27
:200ADB0090E6BAE0F51A8D82121060E582600990E6A07480F0020CB590E6A07401F0020C35
:200AFB00B5E4BF810104FD601490E6B9E0FCBC0A0C90E6BCE0F582121095020CB5EF703617
:200B1B0090E6B9E0FCBC032E90E6BAE0FBA3E0FCBB010FBC000C753C0190E6A07480F002F7
:200B3B000CB5BB0205BC00028003020CB590E6A07480F0020CB5EE603290E6B9E0702CAE7D
:200B5B003BE53C25E0FC420690E740EEF090E741E4F090E6B504F090E68AE4F090E68B744C
:200B7B0002F090E6A07480F0020CB5ED602890E6B9E0702290E740E4F090E741F090E6B537
:200B9B0004F090E68AE4F090E68B7402F090E6A07480F0020CB5BF02028003020C6090E624
:200BBB00B9E0FEBE03028008BE01028003020C6090E6BAE0FDA3E0FE4D6003020CB590E60F
:200BDB00BCE0F5821209E6AD82AE83ED4E7003020CB590E6B9E0FCBC03188D828E83E0FC37
:200BFB004304018D828E83ECF090E6A07480F0020CB590E6BCE0F582C006C00512108BE533
:200C1B0082D005D0067003020CB58D828E83E0FC5304FE8D828E83ECF090E6BCE0FDA3E077
:200C3B008D0453040F530580E4C423CDC423541F6DCD541FCD6DCDFE90E683ED4CF0E043E1
:200C5B00E020F08055BF824C90E6B9E0704690E6BCE0F5821209E6AE82AF83EE4F603B8E10
:200C7B00828F83E0FE5306017F00EE4FB40100B3E433FF90E740F090E741E4F090E6B504F1
:200C9B00F090E68AE4F090E68B7402F090E6A07480F0800690E6B81201C15391EF90E65DE6
:200CBB007401F0D086D0D0D000D001D002D003D004D005D006D007D083D082D0F0D0E0D03D
:200CDB002032AE82AF837401B54228E54370248E828F83E493FCA3E493FD8C468D478C8295
:200CFB008D83E493FC8C4875490090E000120633020F257406B54238E54370348E828F833C
:200D1B00A3A3E493FCA3E493FD4C700790E6A07401F0228C028D038A468B478C828D83E4C6
:200D3B0093FC8C4875490090E000120633020F257402B542028003020E518E828F83A3A3CB
:200D5B00A3A3E493FDC3E5439D4003020E518E828F83A3A3A3A3A3E493FCA3E493FDE5438F
:200D7B0075F002A42CF582ED35F0F583E493FCA3E493FD74092CFAE43DFB8C008D018846EF
:200D9B0089478C828D83E493F9894875490090E000C005C004C003C002120633D002D003DD
:200DBB00D004D0058C828D83E4932400FCE434E0FD8C448D458A828B83E493F8A3E493F987
:200DDB008846894788828983E493F88848754900854482854583C005C004C003C002120689
:200DFB0033D002D003D004D0058A828B83E493F8A3E493F988828983E4932CFCE43DFD7474
:200E1B00022AFAE43BFB8A828B83E493F8A3E493F948709D90E002E0FAA3E0FB4A6003020D
:200E3B000F25ECC39400FCED94E0FD90E002ECF0EDA3F0020F257403B5420474018001E476
:200E5B00FD601EE543701A75465F75471190115FE493FC8C4875490090E000120633020F92
:200E7B0025ED7003020F1EAC437D00EC24FFFAED34FFFB74072EF582E43FF583E493F87970
:200E9B0000C3EA98EB648089F063F08095F0507374082EF582E43FF583E493FEA3E493FF45
:200EBB001CBCFF011DEC2CFCED33FDEC2EF582ED3FF583E493FEA3E493FF90E0007402F058
:200EDB0090E00104F074012401FCE434E0FD8E828F83E493FB60330EBE00010F8C828D83E6
:200EFB00EBF074012CFAE43DFB8A828B83E4F0042AFCE43BFD90E000E0FB0B0B90E000EB55
:200F1B00F080CB90E6A07401F0227E007FE090E6B57401F090E6B3EFF090E6B4EEF090E6EB
:200F3B00A07480F022AE82AF83A3A3A3A3A3E493F550A3E493F55174042EFEE43FFF7548C0
:200F5B00008E828F83E493FAC3E5489A400122E54875F002A42550F582E55135F0F583E41B
:200F7B0093F549A3E493F54A74092549F54BE4354AF54C7900854982854A83A3A3A3A3A313
:200F9B00E493FAB53D028003021052A84BAA4C88828A83E493FBA3E493FD8B828D83A3E4BD
:200FBB0093F54D7404B54D3588828A83E493F54EA3E493F54F854E82854F83A3A3E493B545
:200FDB004611854E82854F83A3A3A3E493FBB5470280047B0080027B018B0180427405B521
:200FFB004D3DE9603A88828A83E493FBA3E493FD8B828D83A3A3E493FD740F5DFC5305809E
:20101B00E423CDC423541F6DCD541FCD6DCD30E40244E0FB90E683ED4CF0E043E020F074F5
:1C103B000228F8E43AFA88828A83E493FBA3E493FD4B6003020FAA0548020F5C9C
:04115F000403090478
:011057003266
:011058003265
:011059003264
:01105A003263
:01105B003262
:01105C003261
:01105D003260
:01105E00325F
:01105F00325E
:19106000AF82E51A700F8F46851A47901117120F407582012275820022C1
:04107900758200225A
:01107D003240
:0C107E00858242851B43901117020CDD97
:01108A003233
:0A108B0090E6A07480F07582012247
:1A10950090E740E4F090E6B504F090E68AE4F090E68B04F090E6A003F022A3
:1C10AF0090E740E53DF090E6B57401F090E68AE4F090E68B04F090E6A003F022D8
:1E10CB00E582FF6003BF01128F3D7546FF7547FF901117120F407582012275820022DF
:00000001FF
