:060000000201CF02089E80
:03000B000208BF29
:030013000208A040
:03001B000208C117
:030023000209D6F9
:03002B000208C305
:030033000208C5FB
:03003B000209D7E0
:03004300020100B7
:03004B0002089F09
:03005300020100A7
:03005B000208A1F7
:030063000208A2EE
:100068000000E2FBEAF2802C0000E0FBEAF08024CA
:10007800E6B50202EBF62200E2B50202EBF222003C
:10008800E0B50202EBF02230F6E0A88220F5D3EAD0
:10009800C6F582228B822230F6E6A88220F5D98026
:1000A800CF0204A8C000A88118C0D0B6001B18B69B
:1000B80068004015B68F005010C0E0E65407B4063B
:0E00C800005004E654F8F6D0E0D0D0D000325C
:03010000020AA050
:030104000209D815
:03010800020918D1
:03010C000209D411
:030110000209DA07
:030114000210BE18
:03011800020915C4
:03011C000201B825
:0301200002091FB2
:030124000210BC0A
:03012800020920A9
:03012C000210BD01
:030130000210E5D5
:030134000208BE00
:030138000208C0FA
:03013C000208C4F2
:0301400002091C95
:030144000201B8FD
:030148000210B6EC
:03014C000210B7E7
:030150000210B8E2
:030154000210B9DD
:030158000210BAD8
:03015C000210BBD3
:030160000209D9B8
:030164000201B8DD
:030168000201B8D9
:03016C000201B8D5
:0301700002091E63
:030174000209215C
:0301780002092356
:03017C0002092550
:030180000209224F
:0301840002092449
:0301880002092643
:03018C000209D590
:030190000208C69C
:0301940002091647
:0301980002091940
:03019C0002091B3A
:0301A0000209143D
:0301A40002091736
:0301A80002091A2F
:0301AC0002091D28
:0301B0000208C280
:0301B4000210D85E
:0101B8003214
:1001CF0075814D121126E58260030200A97900E9BD
:1001DF004400601B7A009011C2780075923EE49340
:1001EF00F2A308B800020592D9F4DAF27592FFE48F
:1001FF0078FFF6D8FD7800E84400600A7900759220
:10020F003EE4F309D8FC7800E84400600C790090D4
:10021F003E00E4F0A3D8FCD9FA7509000200A9E565
:10022F0008600A90E6A07401F07481F0227508014D
:10023F002290E6B8E0FFE4BF400104FE602290E6A2
:10024F00B9E0FDBDA81A75080090E680E043E0080C
:10025F00F090000A1209B090E680E053E0F7F02228
:10026F00EE601890E6B9E0FDBDB01090E6BAE0F58B
:10027F000975080090E6A07480F022E4BFC0010465
:10028F00FD7006EE70030203AB90E6B9E0FCBCA272
:10029F00028008BCA90280030203ABEF235401F5CF
:1002AF000AE4BCA90104F50B60047A5180027A506C
:1002BF008A0C90E6BAE0F50DA3E0F50E90E6BEE0ED
:1002CF00F50FA3E0F510750800E50F45107001223A
:1002DF00AB0FAC10C3EB9440EC940040027B40E5B5
:1002EF000A604A90E6A0E020E1F97524407525E701
:1002FF007526008B27752800850D22850E23850B0B
:10030F0029850C821204BDE582700A90E6A0740163
:10031F00F07481F02290E6B57401F090E68AE4F073
:10032F0090E68BEBF090E6A07480F0804D90E6B5F0
:10033F007401F090E68AE4F090E68BF090E6A0E08E
:10034F0020E1F9752E40752FE77530008B3175322E
:10035F0000850D2C850E2D850B338509347535A63B
:10036F00850C8212052CE582700A90E6A07401F0CC
:10037F007481F02290E6A07480F0AA0FAC1079007F
:10038F00EAC39BFAEC99FC8A0F8C10A80DAC0EEB0C
:10039F0028FBE93CF98B0D890E0202D8ED7006EEB1
:1003AF00700302049B90E6B9E0FEBEA30280030235
:1003BF00049BEF235401F51190E6BAE0FDA3E0FE94
:1003CF0090E6BEE0FBA3E0FC750800EB4C70012249
:1003DF008B018C02C3E99440EA940040027940E516
:1003EF0011604290E6A0E020E1F98D458E468947E5
:1003FF0075480090E740C006C005C004C003C001A7
:10040F00120687D001D003D004D005D00690E6B5F0
:10041F007401F090E68AE4F090E68BE9F090E6A0A4
:10042F007480F0804590E6B57401F090E68AE4F0B0
:10043F0090E68BF090E6A0E020E1F98D008E02753A
:10044F0045407546E78B478C4888828A83C006C033
:10045F0005C004C003C001120687D001D003D00429
:10046F00D005D00690E6A07480F08B008C027F0040
:10047F00E8C399F8EA9FFA88038A048D008E02E98F
:10048F0028F9EF3AFF89058F060203DA7508009005
:10049F00E6A07401F07481F02290E6007412F075FA
:1004AF0082001209F7E50860FC12024080F7C007CE
:1004BF00C006AF82E529600AAE238E2AAE228E2BAC
:1004CF008004AE228E2AEF2FFFF5821206EDE58211
:1004DF006040AE290E8E1375140090002A75F040FF
:1004EF00120726E582602B74014FF5821206EDE5A7
:1004FF0082601F852715852816852482852583858B
:10050F0026F012079CE5827004F582800B7582013C
:10051F008006120705758200D006D00722C007C0DB
:10052F0006C005C004C003C002C001C000AF82E412
:10053F00F536F537EF2FFFF5821206EDE5827003E2
:10054F000206618534F005F07B017C008006EB2B01
:10055F00FBEC33FCD5F0F7C3E5369531E537953233
:10056F004003020661E533600AAA2D8A38AA2C8A55
:10057F00398004AA2C8A38AA330A8A13751400907A
:10058F00003875F040120726E5827003020661C03D
:10059F0007852C82852D838B028C068A458E46C05B
:1005AF0006C004C003C002C001C0001208C7AD825C
:1005BF00AF83D000D001D002D003D004D006EAC35D
:1005CF009DFAEE9FFE8A3A8E3BE531C39536FEE5E6
:1005DF00329537FFC3EE953AEF953BD007500DE5B7
:1005EF0031C39536F53AE5329537F53BE536252E8D
:1005FF00FAE537352FFDAE30853A13853B148A82E5
:10060F008D838EF0120726E5826047120705E5827B
:10061F007004F58280517E00E5356006C3EE953596
:10062F00500C8F821206EDE58270030E80EAEEB554
:10063F0035057582008030E53A252CF52CE53B35E4
:10064F002DF52DE53A2536F536E53B3537F53702ED
:10065F000566120705E531B53608E532B53703D320
:10066F008001C3E433F582D000D001D002D003D093
:10067F0004D005D006D00722AA82AB83AC45AD4685
:10068F00AE47AF48EE60010FEF601775AF078A9B5B
:10069F008B9A8C9E8D9D90E67CE090E67BF0DEF64B
:1006AF00DFF422C007C006AF8290E678E020E00CAE
:1006BF00E51260F5751200758200801D90E678E0F6
:1006CF0030E2057582008011EF600B90E678E00351
:1006DF005401F5828003758201D006D00722C0072E
:1006EF00AF8290E6787480F090E679EFF075820132
:1006FF001206B2D00722C00790E678E030E2057507
:10070F008200801090E6787440F090E678E020E662
:10071F00F9758201D00722C007C006C005C004C00A
:10072F0003C002C001C000AD82AE83AFF0E5134538
:10073F0014700575820180447B007C00EBB51306B5
:10074F00ECB514028026EB2DF8EC3EF98F0288826F
:10075F0089838AF01209DB90E679F075820112061F
:10076F00B2E58260070BBB00D30C80D0EBB513074B
:10077F00ECB51403D38001C3E433F582D000D0016C
:10078F00D002D003D004D005D006D00722C007C0B6
:10079F0006C005C004C003C002C001C00085821797
:1007AF0085831885F019E5154516700675820102C7
:1007BF00088DAB15AC16BB0109BC000690E678742A
:1007CF0020F090E679E07B007C0079007A00E9B5B3
:1007DF001507EAB5160302086A7582001206B2E51C
:1007EF0082700302087D89008A07740228F8E43FAB
:1007FF00FFE8B5150AEFB5160690E6787420F08974
:10080F00068A070EBE00010FEEB5152CEFB51628A0
:10081F0075AF03759AE6759B7890E67B7440F0E0B0
:10082F00AFE0E92517F8EA3518FDAE1988828D83F8
:10083F008EF0EF1208A38017E92517FDEA3518FE91
:10084F00AF1990E679E08D828E838FF01208A3099D
:10085F00B900010A89038A040207DD90E678E030C7
:10086F00E205758200801790E678E020E6F9EBB597
:10087F001507ECB51603D38001C3E433F582D0001E
:10088F00D001D002D003D004D005D006D007223239
:10089F003232323220F71130F6138883A88220F5D6
:1008AF0009F6A8837583002280FEF280F5F02232CC
:1008BF003232323232323232E545454660467A01C3
:1008CF00E54525E0F545E546334012F546E58295C9
:1008DF0045E583954640030A80E6C3E54613F54692
:1008EF00E54513F545C3E5829545F5F0E583954656
:1008FF004005F58385F082C3E54613F546E54513BC
:10090F00F545DAE12232323232323232323232329B
:10091F003232323232323232E583700BE58224FAD0
:10092F00400122B4001122E5826003D5E0FD00757D
:10093F00E0FED583F674F9D5E0FD22C007C006C0EE
:10094F0001C000AE82AF83EE2EF8EF33F9EE28FE32
:10095F00EF39FF90E600E0F8794C20E416C3EF136F
:10096F00CE13CEFF795AE820E309C3EF13CE13CE8F
:10097F00FF7963E58124FAF8E926C313C313F9C39A
:10098F00EE99F582EF9400F583D000D001D006D018
:10099F00075001220209277411C0E012094A15817C
:1009AF0022C007C006AE82AF837411C0E0EE4F6065
:1009BF000D1EBEFF011F9003E812094A80EF15813B
:1009CF00D006D007223232323232323220F7143090
:1009DF00F6148883A88220F507E6A8837583002282
:1009EF00E280F7E49322E022AF82753D00753E006E
:1009FF00D2E890E668E043E008F090E65CE043E080
:100A0F0001F090E65D7401F0D2AF90E680E020E156
:100A1F000890E680E043E002F0EF600E90E680E0A1
:100A2F0043E008F090000A1209B090E680E053E02E
:100A3F00F7F022AF82BF00028037BF01028036BFBE
:100A4F0002028039BF04028038BF06028037BF0818
:100A5F00028036BF80028019BF8102801CBF8202D4
:100A6F00801BBF8402801ABF86028019BF881E8038
:100A7F001890E6A02290E6A12290E6A22290E6A38B
:100A8F002290E6A42290E6A52290E6A622900000EE
:100A9F0022C021C0E0C0F0C082C083C007C006C022
:100AAF0005C004C003C002C001C000C0D075D00093
:100ABF00C08675860090E6B8E0FFE4BF800104FEB3
:100ACF00601990E6B9E0FDBD061190E6BAE0FCA30F
:100ADF00E0F5828C1B1210D9020D17EF702A90E6E9
:100AEF00B9E0FDBD092290E6BAE0F58212112AE5C0
:100AFF0082600990E6A07480F0020D1790E6A07452
:100B0F0001F07481F0020D17EE600E90E6B9E0FD72
:100B1F00BD080612110A020D178F05BD013190E6AF
:100B2F00B9E0FDBD0B2990E6BCE0FD90E6BAE0F51B
:100B3F001A8D821210BFE582600990E6A07480F0D2
:100B4F00020D1790E6A07401F07481F0020D17E406
:100B5F00BF810104FD601490E6B9E0FCBC0A0C9063
:100B6F00E6BCE0F5821210F0020D17EF703690E63A
:100B7F00B9E0FCBC032E90E6BAE0FBA3E0FCBB019E
:100B8F000FBC000C753D0190E6A07480F0020D17AC
:100B9F00BB0205BC00028003020D1790E6A0748013
:100BAF00F0020D17EE603290E6B9E0702CAE3CE526
:100BBF003D25E0FC420690E740EEF090E741E4F07F
:100BCF0090E6B504F090E68AE4F090E68B7402F0BC
:100BDF0090E6A07480F0020D17ED602890E6B9E062
:100BEF00702290E740E4F090E741F090E6B504F012
:100BFF0090E68AE4F090E68B7402F090E6A07480A1
:100C0F00F0020D17BF02028003020CC190E6B9E09B
:100C1F00FEBE03028008BE01028003020CC190E6F3
:100C2F00BAE0FDA3E0FE4D6003020D1790E6BCE0B5
:100C3F00F582120A42AD82AE83ED4E7003020D179C
:100C4F0090E6B9E0FCBC03188D828E83E0FC430470
:100C5F00018D828E83ECF090E6A07480F0020D1768
:100C6F0090E6BCE0F582C006C0051210E6E582D022
:100C7F0005D0067003020D178D828E83E0FC53049E
:100C8F00FE8D828E83ECF090E6BCE0FDA3E08D0438
:100C9F0053040F530580E423CDC423541F6DCD544B
:100CAF001FCD6DCDFE90E683ED4CF0E043E020F0DC
:100CBF008056BF824D90E6B9E0704790E6BCE0F5F4
:100CCF0082120A42AE82AF838E048F05EE4F6038D8
:100CDF008C828D83E05401FCB40100B39200E433A5
:100CEF00FF90E740F090E741E4F090E6B504F09014
:100CFF00E68AE4F090E68B7402F090E6A07480F040
:100D0F00800690E6B812022E5391EF90E65D7401C3
:100D1F00F0D086D0D0D000D001D002D003D004D0F4
:100D2F0005D006D007D083D082D0F0D0E0D02102FA
:100D3F0000ACAE82AF837401B53F27E54070238EC0
:100D4F00828F83E493FCA3E493FD8C458D468C82C4
:100D5F008D83E493F54775480090E00012068702F3
:100D6F000F887406B53F36E54070328E828F83A3AD
:100D7F00A3E493FCA3E493FD4C700A90E6A07401E6
:100D8F00F07481F0228C458D468C828D83E493F52F
:100D9F004775480090E000120687020F887402B56D
:100DAF003F028003020EB28E828F83A3A3A3A3E41C
:100DBF0093FDC3E5409D4003020EB28E828F83A345
:100DCF00A3A3A3A3E493FCA3E493FDE54075F00272
:100DDF00A42CF582ED35F0F583E493FCA3E493FDA9
:100DEF0074092CFAE43DFB8C458D468C828D83E48F
:100DFF0093F54775480090E000C005C004C003C0DC
:100E0F0002120687D002D003D004D0058C828D83C6
:100E1F00E4932400FCE434E0FD8C418D428A438B43
:100E2F0044854382854483E493F8A3E493F988458A
:100E3F00894688828983E493F54775480085418206
:100E4F00854283C005C004C003C002120687D002CA
:100E5F00D003D004D005854382854483E493F8A35F
:100E6F00E493F988828983E4932CFCE43DFD7402BA
:100E7F002AFAE43BFB8A828B83E493F8A3E493483A
:100E8F00709790E002E0FAA3E04A6003020F88EC4B
:100E9F00C39400FCED94E0FD90E002ECF0EDA3F0C4
:100EAF00020F887403B53F0474018001E4FD601DD7
:100EBF00E54070197545BE7546119011BEE493F566
:100ECF004775480090E000120687020F88ED700307
:100EDF00020F7EAC407D00EC24FFFAED34FFFB7473
:100EEF00072EF582E43FF583E493F87900C3EA987F
:100EFF00EB648089F063F08095F0507374082EF5E1
:100F0F0082E43FF583E493FEA3E493FF1CBCFF014F
:100F1F001DEC2CFCED33FDEC2EF582ED3FF583E45B
:100F2F0093FEA3E493FF90E0007402F090E00104BD
:100F3F00F074012401FCE434E0FD8E828F83E4938E
:100F4F00FB60360EBE00010F8C828D83EBF07401B7
:100F5F002CFAE43DFB8A828B83E4F0042AFCE43B09
:100F6F00FD90E000E0FB0B0B90E000EBF080CB90EE
:100F7F00E6A07401F07481F0227E007FE090E6B568
:100F8F007401F090E6B3EFF090E6B4EEF090E6A0C7
:100F9F007480F022AE82AF83A3A3A3A3A3E493FC38
:100FAF00A3E493FD74042EFEE43FFF7547008E8289
:100FBF008F83E493FAC3E5479A400122E54775F022
:100FCF0002A42CF582ED35F0F583E493F548A3E404
:100FDF0093F54974092548F8E43549FA754B0085AE
:100FEF004882854983A3A3A3A3A3E493B53E0280BC
:100FFF00030210B1880189828A83E493F8A3E493F2
:10100F00FB88828B83A3E493FBBB043789828A839B
:10101F00E493F54CA3E493F54D854C82854D83A362
:10102F00A3E493B54510854C82854D83A3A3A3E418
:10103F0093B546028005754A008003754A01854ABB
:10104F004B8048BB0545E54B6041C004C005898214
:10105F008A83E493F8A3E493FB88828B83A3A3E4AE
:10106F0093FB740F5BF8530380E423CBC423541F0B
:10107F006BCB541FCB6BCB30E40244E090E683EB99
:10108F0048F0E043E020F0D005D004740229F9E4E1
:10109F003AFA89828A83E493F8A3E49348600302BF
:1010AF0010050547020FBD32323232323232323240
:1010BF00AF82E51A700F8F45851A46901176120F81
:1010CF00A375820122758200223285823F851B40E3
:1010DF00901176020D413290E6A07480F075820176
:1010EF002290E740E4F090E6B504F090E68AE4F051
:1010FF0090E68B04F090E6A003F02290E740E53EE7
:10110F00F090E6B57401F090E68AE4F090E68B0477
:10111F00F090E6A003F02275820022E582FF6003C3
:10112F00BF01128F3E7545FF7546FF901176120F66
:10113F00A3758201227582002212010002FFFFFFB8
:10114F0040B40413860000010200010904000000EE
:10115F00FFFFFF000902000001010080325A110059
:10116F0000631180119A1148110000017011027271
:10117F00117768697465717561726B40776869740E
:10118F0065717561726B2E6F7267004658322073EE
:10119F00657269657320437970726573732D636C23
:1011AF0061737320626F6F746C6F6164657200049A
:0311BF000309041D
:00000001FF
